:100000000C9434000C9446000C9446000C9446006A
:100010000C9446000C9446000C9446000C94460048
:100020000C9446000C9446000C9446000C94CE00B0
:100030000C9446000C9446000C9446000C94460028
:100040000C9446000C9446000C94C4000C9446009A
:100050000C9446000C9446000C9446000C94460008
:100060000C9446000C94460011241FBECFEFD4E040
:10007000DEBFCDBF11E0A0E0B1E001C01D92A6300F
:10008000B107E1F70E9493010C944E020C9400001A
:100090008CE80E942B0180E00E942B0184E00E94EA
:1000A0002B018CE30E942B0186E00E942B0188E447
:1000B0000E942B0186E00E942B0184E50E942B0107
:1000C00086E00E942B0180E60E942B0186E00E94C0
:1000D0002B018CE80E942B0181E00E942B0186E01D
:1000E0000E942B0185E40E942B0182E10E942B01DA
:1000F00088E40E942B018CE00E942B018AE40E947C
:100100002B018CE00E942B0188E40E942B018CE0E3
:100110000E942B0185E40E942B018CE00E942B01A0
:100120008DE40E942B0188E10C942B011D9912C0D3
:100130001D990CC05F9884EF91E00E94FD005F9ACA
:1001400084E690E00E94FD005F98F2CF8CEA9DE08B
:100150000E94FD008091C00087FF04C08091C6000E
:100160008111F8CF08951D9B08951D9B0CC05F98C9
:1001700084EF91E00E94FD005F9A84E690E00E9487
:10018000FD005F98F2CF08951F920F920FB60F9265
:1001900011240F900FBE0F901F9018951F920F9271
:1001A0000FB60F9211248F939F938091010190912C
:1001B0000201892B51F08091010190910201019778
:1001C000909302018093010102C0109200019F915F
:1001D0008F910F900FBE0F901F9018951092800076
:1001E0008CE08093810087E490E090938900809375
:1001F000880082E080936F00089521E02093000141
:100200009093020180930101809100018111FCCF44
:10021000089580E184B98FEC85B917B88FEF88B95C
:1002200086EE8AB98DE78BB9089583E190E09093CB
:10023000C5008093C40088E98093C10086E0809364
:10024000C2000895F8940E9409010E94EE000E94E5
:100250001501789408959091C00095FFFCCF80938C
:10026000C60008958091C00087FFFCCF8091C60032
:100270000895CF93C82F8C3008F053C081E80E94B6
:100280002B018091C00080648093C0008C2F0E945D
:100290002B018091C00086FFFCCFF894CB3019F47D
:1002A00089E090E034C0CA3019F483E190E02FC0B7
:1002B000C93019F48DE190E02AC0C83019F487E202
:1002C00090E025C0C73019F48BE390E020C0C63021
:1002D00019F48FE490E01BC0C53019F487E790E073
:1002E00016C0C43019F48FEE90E011C0C33019F479
:1002F0008FED91E00CC0C23019F48FEB93E007C092
:10030000C13019F48FE797E002C08FEF9EE0909321
:10031000C5008093C400789484E690E0CF910C945B
:10032000FD00CF9108950E9422010E94960080E86E
:100330000E942B018AE00E9439010E94480082E855
:100340000E942B0184E80E942B018DE80E942B0162
:1003500080E00E942B018EEE92E00E94FD008BE86F
:100360000E942B0180E00E942B0180E00E942B0163
:100370008FEF0E942B0188EE93E09093050180930C
:10038000040181E080930301C5E08AB180668AB9E7
:100390005E9880910401909105010E94FD005E9A93
:1003A00080910401909105010E94FD005D9880916B
:1003B0000401909105010E94FD005D9A8091040165
:1003C000909105010E94FD00C150F9F68091C00096
:1003D00087FDFCCF8EE80E942B0187E00E942B0155
:1003E0000E943201813039F0823011F45E9807C0EA
:1003F000833019F45E985D9802C05E9A5D9A809190
:10040000C00087FDFCCF8EE80E942B0182E10E9494
:100410002B010E9432018130A9F5C4E0D0E08EE9C1
:100420000E942B0181E10E942B011092030189E8B7
:100430000E942B0181E00E942B018CE20E942B0183
:100440008FE70E942B018FEF0E942B0180EF9AE033
:100450000E94FD0089E80E942B0181E00E942B018F
:100460008CE20E942B018FEF0E942B018FEF0E94E4
:100470002B0188E592E00E94FD002197209779F6F4
:100480000E94B3008AE090E00E94FD004C999ECF4C
:100490000E94B30081E090E00E944E02F894FFCFEA
:00000001FF
