:100000000C9434000C9451000C9451000C94510049
:100010000C9451000C9451000C9451000C9451001C
:100020000C9451000C9451000C9451000C949203C8
:100030000C9451000C9451000C945F030C945100EB
:100040000C9451000C9451000C9455030C945100E5
:100050000C9451000C9451000C9451000C945100DC
:100060000C9451000C94510011241FBECFEFD4E02A
:10007000DEBFCDBF11E0A0E0B1E0E0ECF9E002C0EE
:1000800005900D92AC30B107D9F711E0ACE0B1E0CA
:1000900001C01D92AE37B107E1F70E945D040C94D8
:1000A000DE040C94000081E90E94E50380E00E94D8
:1000B000E50380E00E94E50380E00E94E50380E024
:1000C0000C94E5030F931F93CF93DF931F92CDB74B
:1000D000DEB798E0899F8001112481E969830E943D
:1000E000E5036981662359F08EEF0E94E50384EDF4
:1000F0000E94E50381E00E94E5038CE20AC081E0F2
:100100000E94E5038CE20E94E5038EEF0E94E50366
:1001100084ED0E94E503C8010F90DF91CF911F91FC
:100120000F910C94B70381E90E94E50380E00E94DF
:10013000E50380E60E94E50380E00E94E50380E697
:100140000C94E50381E90E94E50380E00E94E50349
:1001500080E20E94E50380E00E94E50380E20C94C7
:10016000E503CF93C82F81E90E94E50380E0C13009
:1001700051F40E94E50380E70E94E50380E00E94BD
:10018000E50380E209C00E94E50380E20E94E503E6
:1001900080E00E94E50380E7CF910C94E503209175
:1001A0004901215081E090E0233010F080E090E0A0
:1001B00008958091230190912401892BA1F48091CD
:1001C0000C01811110C081E90E94E50380E00E94CA
:1001D000E50389E90E94E50380E00E94E50389E9DF
:1001E0000E94E50312C081E90E94E50380E00E94BD
:1001F000E50380E20E94E50380E00E94E50389E9CF
:100200000E94E50381E080930C010E94CF0080935F
:100210001001089526E930E030932C0120932B0142
:1002200080913B01992787FD9095281B390B3093CE
:100230001B0120931A013093250120933A018A561D
:100240009F4F9093190180931801909348018093D8
:10025000260181E90E94E503809148010E94E5039F
:10026000809126010E94E503809125010E94E5030B
:1002700080913A010C94E50381E90E94E5038FEF38
:100280000E94E50386E00E94E5038FEF0E94E503EC
:1002900086E00E94E50380ED97E00E94B7030C948E
:1002A0005300CF93DF93EC0181E90E94E50381E0E5
:1002B0000E94E5038CE20E94E50381E00E94E503D1
:1002C0008CE20E94E503CE016EE170E00E94CA0458
:1002D00086E4689F802D112490E00E94B7030E945D
:1002E00053008FE090E0DF91CF910C94B703EF9231
:1002F000FF920F931F93CF93DF9380911201813070
:1003000009F008C18091C00087FF03C08091C6003A
:10031000F9CF8EE80E94E50386E00E94E503C9E478
:10032000D1E00E94EC03899351E0CD37D507C9F79E
:100330002091630130E0322F222780916401282B25
:1003400030931F0120931E018091530191E0883F5B
:1003500009F090E09093210191E0843F09F090E052
:100360009093200191E08C3F09F090E090932A0156
:1003700091E08E3F09F090E09093220191E0863F5A
:1003800009F090E09093380191E08A3F09F090E005
:1003900090932701482F4D7F483F11F441E005C05D
:1003A000482F457F443FD1F340E040932D01877FA4
:1003B000863F09F491E09093280180917001882391
:1003C00019F00E945300FDCF80910E0181110DC0E4
:1003D00080910701821BEEE3F1E0819371E0E73445
:1003E000F707D9F781E080930E01C0E0D0E0EFE39A
:1003F000F1E00EE311E06FE271E08EE2E82E81E0C1
:10040000F82E80E090E05191D8015D938D01C50FE9
:10041000D11DDB015D91BD01D7015D937D01850F8C
:10042000911DB1E0E734FB0771F720933701820F8C
:10043000911D90933D0180933C016AE070E00E9421
:10044000B604709324016093230150910701521B5D
:1004500050934701852F90E0C80FD91FD0931D01FD
:10046000C0931C01E09106015E9FE02D1124E093F2
:100470007D016091020150910501659F502D11246D
:100480005C9FC02D1124C093390150914601851BFA
:10049000910970E00E94CA0480910401869F602D3A
:1004A0001124609317018C2F90E08E0F911D860F01
:1004B000911D6091030170E00E94CA0460933B01AA
:1004C000809149012630310548F0811107C082E052
:1004D0008093100181E080930F010BC0811106C051
:1004E0002630310518F41092100103C081E080938A
:1004F0001001442339F080910F01882319F083E023
:100500008093100184E690E090930A0180930901A2
:1005100010921201DF91CF911F910F91FF90EF90F8
:10052000089580910001882319F1609111018AE5F5
:100530000E94620010920001809149018823C1F05D
:100540006091110185E00E9462000E947701F4CF62
:1005500083E80E94E5030E94530088E893E10E942B
:10056000B7030E9477018091490181110E943C01EB
:100570000E947701809149018111EACF8091210188
:10058000811104C080912701882319F0809108010E
:100590000AC080912001811104C080913801882314
:1005A00029F0809111010E94B100E2CF0E949300D6
:1005B000DFCF8CE80E94E50380E00E94E50384E041
:1005C0000E94E5038CE30E94E50386E00E94E503B8
:1005D00088E40E94E50386E00E94E50384E50E942A
:1005E000E50386E00E94E50380E60E94E50386E0DD
:1005F0000E94E5038CE80E94E50381E00E94E50388
:1006000086E00E94E50385E40E94E50382E10E9402
:10061000E50388E40E94E5038CE00E94E5038AE498
:100620000E94E5038CE00E94E50388E40E94E50354
:100630008CE00E94E50385E40E94E5038CE00E94C3
:10064000E5038DE40E94E50388E10C94E5031D9920
:1006500012C01D990CC05F9884EF91E00E94B7030F
:100660005F9A84E690E00E94B7035F98F2CF8CEA2D
:100670009DE00E94B7038091C00087FF04C0809175
:10068000C6008111F8CF08951D9B08951D9B0CC0D5
:100690005F9884EF91E00E94B7035F9A84E690E050
:1006A0000E94B7035F98F2CF08951F920F920FB682
:1006B0000F9211240F900FBE0F901F9018951F924C
:1006C0000F920FB60F9211248F939F938091150173
:1006D00090911601892B51F080911501909116018E
:1006E0000197909316018093150102C01092140196
:1006F0008091090190910A01892B51F080910901A3
:1007000090910A01019790930A018093090103C017
:1007100081E0809312019F918F910F900FBE0F90F7
:100720001F9018951F920F920FB60F9211248F935E
:1007300081E0809313018F910F900FBE0F901F9057
:10074000189522E024BD85E085BD81E187BD209319
:100750006E00109280008DE0809381008FE496E41B
:10076000909389008093880020936F00089521E082
:100770002093140190931601809315018091140128
:100780008111FCCF089580E184B98FEC85B917B849
:100790008FEF88B986EE8AB98DE78BB9089583E12A
:1007A00090E09093C5008093C40088E98093C100D5
:1007B00086E08093C2000895F8940E94C3030E94CB
:1007C000A1030E94CF03789408959091C00095FFF3
:1007D000FCCF8093C60008958091C00087FFFCCFB6
:1007E0008091C6000895CF93C82F8C3008F053C075
:1007F00081E80E94E5038091C00080648093C0007E
:100800008C2F0E94E5038091C00086FFFCCFF894F6
:10081000CB3019F489E090E034C0CA3019F483E198
:1008200090E02FC0C93019F48DE190E02AC0C830A3
:1008300019F487E290E025C0C73019F48BE390E00B
:1008400020C0C63019F48FE490E01BC0C53019F405
:1008500087E790E016C0C43019F48FEE90E011C025
:10086000C33019F48FED91E00CC0C23019F48FEB56
:1008700093E007C0C13019F48FE797E002C08FEF13
:100880009EE09093C5008093C400789484E690E045
:10089000CF910C94B703CF910895CF93C82F8AE0DE
:1008A00090E00E94B703C13011F42C9801C02C9A3B
:1008B0008AE090E0CF910C94B7030E94DC030E9481
:1008C000270380E80E94E5038AE00E94F3030E9468
:1008D000D90282E80E94E50384E80E94E5038DE8DE
:1008E0000E94E50380E00E94E5038EEE92E00E9404
:1008F000B7038BE80E94E50380E00E94E50380E0F7
:100900000E94E5038FEF0E94E503C1E00E9477019A
:10091000809149018530E0F480911001833011F419
:100920000E949102811103C00E94D90013C081303E
:1009300041F40E9453006091110185E00E94620021
:1009400009C0823039F40E940A01C0930C0102C030
:100950000E9453008FE090E00E94B7034C99D6CFDD
:100960000E94440381E090E00E94DE04AA1BBB1BAE
:1009700051E107C0AA1FBB1FA617B70710F0A61B9F
:10098000B70B881F991F5A95A9F780959095BC01C0
:10099000CD01089597FB072E16F4009407D077FD3C
:1009A00009D00E94B60407FC05D03EF490958195CD
:1009B0009F4F0895709561957F4F0895F894FFCFEC
:0C09C00001010164C814505001640000E3
:00000001FF
