:100000000C9434000C9451000C9451000C94510049
:100010000C9451000C9451000C9451000C9451001C
:100020000C9451000C9451000C9451000C942A0132
:100030000C9451000C9451000C94F7000C94510056
:100040000C9451000C9451000C94ED000C94510050
:100050000C9451000C9451000C9451000C945100DC
:100060000C9451000C94510011241FBECFEFD4E02A
:10007000DEBFCDBF11E0A0E0B1E0E8EEFAE002C0E3
:1000800005900D92A632B107D9F711E0A6E2B1E0D2
:1000900001C01D92A436B107E1F70E94F5010C944E
:1000A00072050C9400000F931F93CF93DF93EC0124
:1000B0008C01FE0101900020E9F73197EC1BFD0B4C
:1000C000C8018C1B9D0B8E179F0730F4F80181919E
:1000D0008F010E947D01EDCFDF91CF911F910F9194
:1000E00008958CE80E947D0180E00E947D0184E0FB
:1000F0000E947D018CE30E947D0186E00E947D01CB
:1001000088E40E947D0186E00E947D0184E50E94D2
:100110007D0186E00E947D0180E60E947D0186E0EF
:100120000E947D018CE80E947D0181E00E947D019A
:1001300086E00E947D0185E40E947D0182E10E94AB
:100140007D0188E40E947D018CE00E947D018AE4AB
:100150000E947D018CE00E947D0188E40E947D0167
:100160008CE00E947D0185E40E947D018CE00E946C
:100170007D018DE40E947D0188E10C947D011D9933
:1001800012C01D990CC05F9884EF91E00E944F014E
:100190005F9A84E690E00E944F015F98F2CF8CEA6C
:1001A0009DE00E944F018091C00087FF04C08091B4
:1001B000C6008111F8CF08951D9B08951D9B0CC0AA
:1001C0005F9884EF91E00E944F015F9A84E690E08F
:1001D0000E944F015F98F2CF08951F920F920FB6C1
:1001E0000F9211240F900FBE0F901F9018951F9221
:1001F0000F920FB60F9211248F939F9380912B0132
:1002000090912C01892B51F080912B0190912C0120
:10021000019790932C0180932B0102C010922A0128
:100220008091060190910701892B51F08091060180
:10023000909107010197909307018093060103C0F5
:1002400081E0809328019F918F910F900FBE0F90B6
:100250001F9018951F920F920FB60F9211248F9333
:1002600081E0809329018F910F900FBE0F901F9016
:10027000189522E024BD85E085BD81E187BD2093EE
:100280006E00109280008DE0809381008FE496E4F0
:10029000909389008093880020936F00089521E057
:1002A00020932A0190932C0180932B0180912A01A5
:1002B0008111FCCF089580E184B98FEC85B917B81E
:1002C0008FEF88B986EE8AB98DE78BB9089583E1FF
:1002D00090E09093C5008093C40088E98093C100AA
:1002E00086E08093C2000895F8940E945B010E940A
:1002F00039010E946701789408959091C00095FF9C
:10030000FCCF8093C60008958091C00087FFFCCF8A
:100310008091C6000895CF93C82F8C3008F053C049
:1003200081E80E947D018091C00080648093C000BC
:100330008C2F0E947D018091C00086FFFCCFF89435
:10034000CB3019F489E090E034C0CA3019F483E16D
:1003500090E02FC0C93019F48DE190E02AC0C83078
:1003600019F487E290E025C0C73019F48BE390E0E0
:1003700020C0C63019F48FE490E01BC0C53019F4DA
:1003800087E790E016C0C43019F48FEE90E011C0FA
:10039000C33019F48FED91E00CC0C23019F48FEB2B
:1003A00093E007C0C13019F48FE797E002C08FEFE8
:1003B0009EE09093C5008093C400789484E690E01A
:1003C000CF910C944F01CF910895CF93C82F8AE01D
:1003D00090E00E944F01C13011F42C9801C02C9A7A
:1003E0008AE090E0CF910C944F01CF93DF93CDB78B
:1003F000DEB7E2970FB6F894DEBF0FBECDBF0E9406
:1004000074010E94BF0080E80E947D018AE00E9482
:100410008B010E94710082E80E947D0184E80E94A5
:100420007D018DE80E947D0180E00E947D018EEEBD
:1004300092E00E944F018BE80E947D0180E00E94C3
:100440007D0180E00E947D018FEF0E947D0188EE9A
:1004500093E090932F0180932E0181E080932D01F2
:1004600054E6A52EB12C68E0E62E61E0F62E8E0152
:100470000F5F1F4F78E1C72E71E0D72E80912801C2
:100480008130D1F48EE80E947D0186E00E947D01DA
:1004900040E3842E41E0942E0E948401F401819374
:1004A0004F01F4E68F16F1E09F06B1F7B092070115
:1004B000A092060110922801809129018130A9F5AE
:1004C00082E00E94E501F89480914C0190E0982F21
:1004D000882720914D01822B9F938F93FF92EF925B
:1004E0001F930F930E94A102C8010E9453008091A4
:1004F000430190E0982F882720914401822B9F93FD
:100500008F93DF92CF921F930F930E94A102C80195
:100510000E945300789481E00E94E5011092290125
:100520000FB6F894DEBF0FBECDBF8FE090E00E9403
:100530004F014C99A3CF0E94DC0081E090E00E9423
:100540007205AEE0B0E0E7EAF2E00C9449050D89EF
:100550001E8986E08C831A8309838FEF9FE79E8331
:100560008D83AE01475E5F4F6F89788DCE01019616
:100570000E94C302EF81F885E00FF11F10822E96D2
:10058000E4E00C946505ACE0B0E0E9ECF2E00C943A
:100590003B057C016B018A01FC0117821682838175
:1005A00081FFBDC1CE0101964C01F7019381F60197
:1005B00093FD859193FF81916F01882309F4ABC16D
:1005C000853239F493FD859193FF81916F018532D6
:1005D00029F4B70190E00E94AB04E7CF512C312CF5
:1005E00020E02032A0F48B3269F030F4803259F0F0
:1005F000833269F420612CC08D3239F0803339F4B4
:10060000216026C02260246023C0286021C027FD0D
:1006100027C030ED380F3A3078F426FF06C0FAE0F4
:100620005F9E300D1124532E13C08AE0389E300D8A
:100630001124332E20620CC08E3221F426FD6BC1B2
:10064000206406C08C3611F4206802C0883641F45C
:10065000F60193FD859193FF81916F018111C1CFC7
:10066000982F9F7D9554933028F40C5F1F4FFFE324
:10067000F9830DC0833631F0833771F0833509F08B
:100680005BC022C0F801808189830E5F1F4F442424
:100690004394512C540115C03801F2E06F0E711CC7
:1006A000F801A080B18026FF03C0652D70E002C074
:1006B0006FEF7FEFC5012C870E94A0042C018301FE
:1006C0002C852F77222E17C03801F2E06F0E711C97
:1006D000F801A080B18026FF03C0652D70E002C044
:1006E0006FEF7FEFC5012C870E9495042C012C85AC
:1006F0002068222E830123FC1BC0832D90E0481626
:100700005906B0F4B70180E290E00E94AB043A943D
:10071000F4CFF50127FC859127FE81915F01B70198
:1007200090E00E94AB0431103A94F1E04F1A510866
:100730004114510471F7E5C0843611F0893639F55A
:10074000F80127FF07C060817181828193810C5F6E
:100750001F4F08C060817181882777FD8095982F91
:100760000E5F1F4F2F76B22E97FF09C09095809590
:10077000709561957F4F8F4F9F4F2068B22E2AE072
:1007800030E0A4010E94DD04A82EA81844C08537DB
:1007900029F42F7EB22E2AE030E025C0F22FF97F17
:1007A000BF2E8F36C1F018F4883579F0B4C0803789
:1007B00019F0883721F0AFC02F2F2061B22EB4FE80
:1007C0000DC08B2D8460B82E09C024FF0AC09F2F56
:1007D0009660B92E06C028E030E005C020E130E088
:1007E00002C020E132E0F801B7FE07C060817181EC
:1007F000828193810C5F1F4F06C06081718180E010
:1008000090E00E5F1F4FA4010E94DD04A82EA818DF
:10081000FB2DFF77BF2EB6FE0BC02B2D2E7FA51410
:1008200050F4B4FE0AC0B2FC08C02B2D2E7E05C0C9
:100830007A2C2B2D03C07A2C01C0752C24FF0DC0FF
:10084000FE01EA0DF11D8081803311F4297E09C07B
:1008500022FF06C07394739404C0822F867809F037
:10086000739423FD13C020FF06C05A2C731418F490
:10087000530C5718732C731468F4B70180E290E09E
:100880002C870E94AB0473942C85F5CF731410F45D
:10089000371801C0312C24FF12C0B70180E390E06B
:1008A0002C870E94AB042C8522FF17C021FF03C0B8
:1008B00088E590E002C088E790E0B7010CC0822F85
:1008C000867859F021FD02C080E201C08BE227FD4D
:1008D0008DE2B70190E00E94AB04A51438F4B70193
:1008E00080E390E00E94AB045A94F7CFAA94F401FD
:1008F000EA0DF11D8081B70190E00E94AB04A110C8
:10090000F5CF332009F451CEB70180E290E00E9488
:10091000AB043A94F6CFF7018681978102C08FEF3E
:100920009FEF2C96E2E10C945705FC010590615075
:1009300070400110D8F7809590958E0F9F1F0895F5
:10094000FC016150704001900110D8F7809590959E
:100950008E0F9F1F08950F931F93CF93DF93182F30
:10096000092FEB018B8181FD03C08FEF9FEF20C02A
:1009700082FF10C04E815F812C813D814217530759
:100980007CF4E881F9819F012F5F3F4F39832883F1
:10099000108306C0E885F985812F0995892B29F7F1
:1009A0002E813F812F5F3F4F3F832E83812F902FDA
:1009B000DF91CF911F910F910895FA01AA27283056
:1009C00051F1203181F1E8946F936E7F6E5F7F4F1C
:1009D0008F4F9F4FAF4FB1E03ED0B4E03CD0670F98
:1009E000781F891F9A1FA11D680F791F8A1F911DEB
:1009F000A11D6A0F711D811D911DA11D20D009F43B
:100A000068943F912AE0269F11243019305D31937C
:100A1000DEF6CF010895462F4770405D4193B3E065
:100A20000FD0C9F7F6CF462F4F70405D4A3318F00C
:100A3000495D31FD4052419302D0A9F7EACFB4E0BD
:100A4000A6959795879577956795BA95C9F7009775
:100A50006105710508959B01AC010A2E0694579516
:100A6000479537952795BA95C9F7620F731F841F6D
:100A7000951FA01D08952F923F924F925F926F9203
:100A80007F928F929F92AF92BF92CF92DF92EF921E
:100A9000FF920F931F93CF93DF93CDB7DEB7CA1B9F
:100AA000DB0B0FB6F894DEBF0FBECDBF09942A88CA
:100AB000398848885F846E847D848C849B84AA8472
:100AC000B984C884DF80EE80FD800C811B81AA81FF
:100AD000B981CE0FD11D0FB6F894DEBF0FBECDBFCA
:080AE000ED010895F894FFCF29
:100AE8000100DB0F49406400436C696666204C6571
:100AF80066743A2025750A0043757272656E743AF9
:060B08002025690A00002F
:00000001FF
