:100000000C9434000C9451000C9451000C94510049
:100010000C9451000C9451000C9451000C9451001C
:100020000C9451000C9451000C9451000C947001EC
:100030000C9451000C9451000C943D010C9451000F
:100040000C9451000C9451000C9433010C94510009
:100050000C9451000C9451000C9451000C945100DC
:100060000C9451000C94510011241FBECFEFD4E02A
:10007000DEBFCDBF11E0A0E0B1E0E6EEF5E002C0EA
:1000800005900D92A830B107D9F711E0A8E0B1E0D2
:1000900001C01D92A934B107E1F70E943B020C9404
:1000A000F1020C94000081E90E94C30180E00E94EB
:1000B000C30180E00E94C30180E00E94C30180E090
:1000C0000C94C3010F931F93CF93DF93EC018C012A
:1000D000FE0101900020E9F73197EC1BFD0BC801F0
:1000E0008C1B9D0B8E179F0730F4F80181918F01B7
:1000F0000E94C301EDCFDF91CF911F910F91089521
:1001000010920A0121E020930801019771F481E91E
:100110000E94C3018EEF0E94C30184ED0E94C301BF
:1001200081E00E94C3018CE20DC081E90E94C301FD
:1001300081E00E94C3018CE20E94C3018EEF0E9405
:10014000C30184ED0E94C30180EE91E00C949501FF
:1001500081E90E94C30181E00E94C3018CE20E94F8
:10016000C30181E00E94C3018CE20C94C3018CE8BE
:100170000E94C30180E00E94C30184E00E94C30189
:100180008CE30E94C30186E00E94C30188E40E94C0
:10019000C30186E00E94C30184E50E94C30186E09A
:1001A0000E94C30180E60E94C30186E00E94C30151
:1001B0008CE80E94C30181E00E94C30186E00E9496
:1001C000C30185E40E94C30182E10E94C30188E467
:1001D0000E94C3018CE00E94C3018AE40E94C30113
:1001E0008CE00E94C30188E40E94C3018CE00E945D
:1001F000C30185E40E94C3018CE00E94C3018DE429
:100200000E94C30188E10C94C3011D9912C01D997D
:100210000CC05F9884EF91E00E9495015F9A84E69C
:1002200090E00E9495015F98F2CF8CEA9DE00E94D9
:1002300095018091C00087FF04C08091C6008111A4
:10024000F8CF08951D9B08951D9B0CC05F9884EF07
:1002500091E00E9495015F9A84E690E00E949501EA
:100260005F98F2CF08951F920F920FB60F9211244C
:100270000F900FBE0F901F9018951F920F920FB600
:100280000F9211248F939F938091100190911101EF
:10029000892B51F080911001909111010197909359
:1002A00011018093100102C010920F01809106018C
:1002B00090910701892B51F08091060190910701DF
:1002C0000197909307018093060103C081E080931A
:1002D0000D019F918F910F900FBE0F901F90189559
:1002E0001F920F920FB60F9211248F9381E080938B
:1002F0000E018F910F900FBE0F901F90189522E066
:1003000024BD85E085BD81E187BD20936E001092FC
:1003100080008DE0809381008FE496E490938900C3
:100320008093880020936F00089521E020930F01AF
:10033000909311018093100180910F018111FCCFE6
:10034000089580E184B98FEC85B917B88FEF88B92B
:1003500086EE8AB98DE78BB9089583E190E090939A
:10036000C5008093C40088E98093C10086E0809333
:10037000C2000895F8940E94A1010E947F010E948A
:10038000AD01789408959091C00095FFFCCF8093C3
:10039000C60008958091C00087FFFCCF8091C60001
:1003A0000895CF93C82F8C3008F053C081E80E9485
:1003B000C3018091C00080648093C0008C2F0E9494
:1003C000C3018091C00086FFFCCFF894CB3019F4B4
:1003D00089E090E034C0CA3019F483E190E02FC086
:1003E000C93019F48DE190E02AC0C83019F487E2D1
:1003F00090E025C0C73019F48BE390E020C0C630F0
:1004000019F48FE490E01BC0C53019F487E790E041
:1004100016C0C43019F48FEE90E011C0C33019F447
:100420008FED91E00CC0C23019F48FEB93E007C060
:10043000C13019F48FE797E002C08FEF9EE09093F0
:10044000C5008093C400789484E690E0CF910C942A
:100450009501CF910895CF93C82F8AE090E00E9434
:100460009501C13011F42C9801C02C9A8AE090E0DB
:10047000CF910C9495010E94BA010E94050180E879
:100480000E94C3018AE00E94D1010E94B70082E865
:100490000E94C30184E80E94C3018DE80E94C30149
:1004A00080E00E94C3018EEE92E00E9495018BE8ED
:1004B0000E94C30180E00E94C30180E00E94C3014A
:1004C0008FEF0E94C30188EE93E090931401809314
:1004D000130181E08093120104E610E0FF24F394FD
:1004E0008AB180668AB980910D01813009F044C0DB
:1004F0008091C00087FF03C08091C600F9CF8EE8CD
:100500000E94C30186E00E94C301C5E1D1E00E94C0
:10051000CA01899381E0C934D807C9F790911A01BB
:1005200080911501913061F090911901913041F065
:1005300090911701913021F090911801913019F4A8
:10054000F0920A0106C09FEF980F9330C8F3109203
:100550000A01843031F0883021F0803111F08C3183
:1005600019F4F092090102C01092090110930701D9
:100570000093060110920D0180910801813021F451
:1005800080910901813009F180911F01823839F48D
:1005900080910A01811117C00E94A80016C08338FB
:1005A00039F48091090181110EC081E090E008C00A
:1005B000813849F480910901811105C080E090E003
:1005C0000E94800002C00E9453008FE090E00E94D1
:1005D00095014C9985CF0E94220181E090E00E9414
:0605E000F102F894FFCFC8
:0805E6000100DB0F4940640035
:00000001FF
